:100000000C945D000C9485000C9485000C94850084
:100010000C9485000C9485000C9485000C9485004C
:100020000C9485000C9485000C9485000C9485003C
:100030000C9485000C9485000C9485000C9485002C
:100040000C94FB030C9485000C946B040C944504F5
:100050000C9485000C9485000C9485000C9485000C
:100060000C9485000C9485000000000024002700FB
:100070002A0000000000250028002B0004040404CE
:100080000404040402020202020203030303030342
:10009000010204081020408001020408102001021F
:1000A00004081020000000080002010000030407FB
:1000B0000000000000000000BB0411241FBECFEFB1
:1000C000D8E0DEBFCDBF12E0A0E0B1E0E0E7F9E1AB
:1000D00002C005900D92A839B107D9F723E0A8E92D
:1000E000B2E001C01D92A537B207E1F710E0CDE5FF
:1000F000D0E004C02197FE010E948A0BCC35D107C5
:10010000C9F70E9443060C94B60C0C94000090E0D2
:10011000FC01EC55FF4F2491FC01E057FF4F349157
:10012000FC01E458FF4FE491EE2309F43CC0222384
:1001300039F1233091F038F42130A9F0223001F563
:1001400084B58F7D12C0273091F02830A1F0243083
:10015000B9F4809180008F7D03C0809180008F77FB
:10016000809380000DC084B58F7784BD09C08091D5
:10017000B0008F7703C08091B0008F7D8093B00076
:10018000F0E0EE0FFF1FEE58FF4FA591B4919FB71F
:10019000F894611104C08C913095382302C0EC9121
:1001A0003E2B3C939FBF0895CF93DF9390E0FC01DB
:1001B000E057FF4F2491FC01E458FF4F84918823BE
:1001C00061F190E0880F991FFC01E859FF4FC5913C
:1001D000D491FC01EE58FF4FA591B491611109C073
:1001E0009FB7F8948881209582238883EC912E23F1
:1001F0000BC0623061F49FB7F8948881322F30953C
:1002000083238883EC912E2B2C939FBF06C08FB73E
:10021000F894E8812E2B28838FBFDF91CF9108952A
:100220008E3008F08E508770806480937C008091BF
:100230007A00806480937A0080917A0086FDFCCFFA
:10024000809178002091790090E0922B08952FB74B
:10025000F8946091B2027091B3028091B4029091CF
:10026000B5022FBF0895CF93DF93EC0149835A83E2
:100270006B837C8389819A81AB81BC818D839E83D2
:10028000AF83B8870E94270169877A878B879C870D
:10029000DF91CF910895CF92DF92EF92FF920F936B
:1002A0001F93CF93DF936C017A018B01C0E0D0E004
:1002B000CE15DF0581F0D8016D918D01D601ED914C
:1002C000FC910190F081E02DC6010995892B11F078
:1002D0002196EECF7E01C701DF91CF911F910F9143
:1002E000FF90EF90DF90CF900895089580E090E028
:1002F0000895FC01538D448D252F30E0842F90E02C
:10030000821B930B541710F0CF9608950197089510
:10031000FC01918D828D981761F0828DDF01A80F0D
:10032000B11D5D968C91928D9F5F9F73928F90E02F
:1003300008958FEF9FEF0895FC01918D828D98179E
:1003400031F0828DE80FF11D858D90E008958FEFDB
:100350009FEF0895FC01918D228D892F90E0805CA4
:100360009F4F821B91098F739927089586EB92E026
:100370000E94AA0121E0892B09F420E0822F089530
:10038000FC01848DDF01A80FB11DA35ABF4F2C9132
:10039000848D90E001968F739927848FA689B78901
:1003A0002C93A089B1898C91837080648C93938DF8
:1003B000848D981306C00288F389E02D80818F7D9B
:1003C00080830895EF92FF920F931F93CF93DF9353
:1003D000EC0181E0888F9B8D8C8D981305C0E88996
:1003E000F989808185FD26C0F62E0B8D10E00F5F08
:1003F0001F4F0F731127E02E8C8DE8120CC00FB623
:1004000007FCFACFE889F989808185FFF5CFCE0115
:100410000E94C001F1CF8B8DFE01E80FF11DE35A60
:10042000FF4FF0829FB7F8940B8FEA89FB89808198
:1004300080620AC09FB7F894EE89FF896083E889DB
:10044000F98980818370806480839FBF81E090E020
:10045000DF91CF911F910F91FF90EF900895CF936F
:10046000DF93EC01888D8823C9F0EA89FB898081BC
:1004700085FD05C0A889B9898C9186FD0FC00FB68E
:1004800007FCF5CF808185FFF2CFA889B9898C91CF
:1004900085FFEDCFCE010E94C001E7CFDF91CF9164
:1004A000089580E090E0892B29F00E94B601811127
:1004B0000C9400000895EF92FF921F93CF93DF9367
:1004C000DC018C919C919E7F9C939C919D7F9C9341
:1004D000182F117080FF16C05D96ED91FC915E970C
:1004E000309781F0ED01ABA1BCA11496ED90FC908A
:1004F00015971596DC93CE9314970995EBA1FCA163
:10050000F582E482812FDF91CF911F91FF90EF90D0
:1005100008950F931F93CF93DF93FC01A3A1B4A180
:100520001097E9F1EC01158A168A178A108E038C50
:10053000F48DE02D309779F1888181FD2CC01496DF
:100540000D911C9115971596DC93CE931497888185
:10055000826088830995988180FB90F998838881CF
:100560008D7F8883EBA1FCA1158304830E94270162
:1005700009811A812B813C810D831E832F8338874B
:10058000DC01CB01801B910BA20BB30B89879A87EF
:10059000AB87BC8704C0888181608883E7CFDF9107
:1005A000CF911F910F910895CF93DF93C09167036F
:1005B000D0916803CE010E94890289899A89AB890A
:1005C000BC898D879E87AF87B88BDF91CF910895C7
:1005D000CF93DF93C0916B03D0916C03CE010E9447
:1005E000890289899A89AB89BC898D879E87AF8763
:1005F000B88BDF91CF910895CF93FC012081C22F5A
:10060000C17020FF0E9489028C2FCF9108958091A4
:100610006503909166030C94FC02809169039091AC
:100620006A030C94FC0280916D0390916E030C940C
:10063000FC0280916F03909170030C94FC0261E0C6
:1006400088E00E94870087E398E00197F1F760E077
:1006500088E00E9487008FEA98E10197F1F70895FA
:10066000FF920F931F93CF93DF93F82EC7E0D1E053
:1006700007E318E08F2D8D2319F00E941F030EC091
:1006800061E088E00E948700C8010197F1F760E00F
:1006900088E00E948700C8010197F1F7DD0FC15083
:1006A00049F7DF91CF911F910F91FF900895CF935C
:1006B000DF93D82F60E088E00E94870087E398E00E
:1006C0000197F1F761E088E00E9487008BEB93E8E7
:1006D0000197F1F760E088E00E9487008BED91E4DC
:1006E0000197F1F70E941F03C3E087E40E943003E3
:1006F0008D2F0E9430030E941F030E941F03C150D0
:10070000A1F7DF91CF910895CF93C82F0E9457038F
:100710008C2FCF910C945703009769F0FC01019046
:100720000020E9F73197AF01481B590BBC0186EB5C
:1007300092E00C944B0180E090E00895CF93DF931A
:100740000E948C03EC018EE191E00E948C038C0FDF
:100750009D1FDF91CF91089581E291E00E949E0359
:1007600084E00C9484038BE391E00E949E0385E077
:100770000C94840387E591E00E949E0384E10C942D
:10078000840389E691E00E949E0385E10C94840332
:100790008CE791E00E949E038EE00C94840381E933
:1007A00091E00E949E038AE10C9484038FEA91E019
:1007B0000E949E0388E00C94840386EC91E00E94E2
:1007C0009E038DE00C94840380EE91E00E949E03D2
:1007D0008AE00C94840386EF91E00E949E0382E1FC
:1007E0000C94840381E192E00E949E0383E10C94C7
:1007F00084030E94B10C1F920F920FB60F92112426
:100800002F933F938F939F93AF93BF938091B202A7
:100810009091B302A091B402B091B5023091B102AF
:1008200023E0230F2D3720F40196A11DB11D05C033
:1008300026E8230F0296A11DB11D2093B1028093DB
:10084000B2029093B302A093B402B093B502809128
:10085000AD029091AE02A091AF02B091B0020196AC
:10086000A11DB11D8093AD029093AE02A093AF0283
:10087000B093B002BF91AF919F918F913F912F9113
:100880000F900FBE0F901F9018951F920F920FB6EA
:100890000F9211242F933F934F935F936F937F9306
:1008A0008F939F93AF93BF93EF93FF9386EB92E069
:1008B0000E94C001FF91EF91BF91AF919F918F91E5
:1008C0007F916F915F914F913F912F910F900FBE4C
:1008D0000F901F9018951F920F920FB60F92112430
:1008E0002F938F939F93EF93FF93E091C602F09124
:1008F000C7028081E091CC02F091CD0282FD12C04E
:1009000090818091CF028F5F8F732091D0028217E8
:1009100051F0E091CF02F0E0EA54FD4F958F8093C3
:10092000CF0201C08081FF91EF919F918F912F9114
:100930000F900FBE0F901F901895FC0180818E7F45
:10094000808380818D7F8083118612861386148632
:1009500015821682178210861182128213821482E7
:1009600010A2178E12A211A214A213A2158A168A1F
:10097000178A108E08956F927F928F929F92AF92F6
:10098000BF92CF92DF92EF92FF920F931F93CF937C
:10099000DF93E6EBF2E01382128288EE93E0A0E0B0
:1009A000B0E084839583A683B78380E191E091834F
:1009B000808385EC90E09587848784EC90E097872E
:1009C000868780EC90E0918B808B81EC90E0938B1C
:1009D000828B82EC90E0958B848B86EC90E0978BF9
:1009E000868B118E128E138E148E85E290E00E94FB
:1009F000900BEC010E949D048CEAA82E83E0B82E97
:100A0000BA8EA98E1C8E1B8E1E8E1D8E48EC50E059
:100A100060E070E0CE010E943301CC24CA94DC2C4B
:100A20007601CD86DE86EF86F88AC98ADA8AEB8A75
:100A3000FC8A05E613E0F801D183C08385E290E0EB
:100A40000E94900BEC010E949D04BA8EA98E1C8E10
:100A50001B8E1E8E1D8E48EC50E060E070E0CE01D3
:100A60000E94330125E0822E912CA12CB12C8D8681
:100A70009E86AF86B88A898A9A8AAB8ABC8AF80130
:100A8000D383C28385E290E00E94900BEC010E9428
:100A90009D0433EB632E33E0732E7A8E698E1C8EA9
:100AA0001B8E1E8E1D8E48EC50E060E070E0CE0183
:100AB0000E943301CD86DE86EF86F88AC98ADA8AFB
:100AC000EB8AFC8AF801D583C48385E290E00E941A
:100AD000900BEC010E949D047A8E698E1C8E1B8EF9
:100AE0001E8E1D8E48EC50E060E070E0CE010E944A
:100AF00033018D869E86AF86B88A898A9A8AAB8AA8
:100B0000BC8AF801D783C68385E290E00E94900BEF
:100B1000EC010E949D048AEB93E09A8F898F1C8ED2
:100B20001B8E1E8E1D8E44E650E060E070E0CE010C
:100B30000E943301CD86DE86EF86F88AC98ADA8A7A
:100B4000EB8AFC8AF801D187C08785E290E00E9499
:100B5000900BEC010E949D0481EC93E09A8F898FA9
:100B60001C8E1B8E1E8E1D8E44E650E060E070E0F1
:100B7000CE010E943301CD86DE86EF86F88AC98ACF
:100B8000DA8AEB8AFC8AF801D387C28788E090E092
:100B90000E94900BFC01138212821582148217822C
:100BA000168211821082C9E5D3E09983888388E098
:100BB00090E00E94900BFC01138212821582148235
:100BC0001782168281E090E091838083FB83EA8321
:100BD00088E090E00E94900BFC0113821282158243
:100BE00014821782168282E090E091838083FD83D5
:100BF000EC8388E090E00E94900BFC01138212824B
:100C0000158214821782168283E090E0918380839C
:100C1000FF83EE8388E090E00E94900BFC0113823A
:100C20001282158214821782168284E090E09183EA
:100C30008083F987E88788E090E00E94900BFC01B0
:100C400013821282158214821782168285E090E048
:100C500091838083FB87EA87E3E5F3E011821082CA
:100C60001382128215821482DF91CF911F910F910E
:100C7000FF90EF90DF90CF90BF90AF909F908F90BC
:100C80007F906F900895789484B5826084BD84B518
:100C9000816084BD85B5826085BD85B5816085BD77
:100CA00080916E00816080936E001092810080912F
:100CB00081008260809381008091810081608093B7
:100CC0008100809180008160809380008091B100DC
:100CD00084608093B1008091B00081608093B00007
:100CE00080917A00846080937A0080917A0082609B
:100CF00080937A0080917A00816080937A0080915D
:100D00007A00806880937A001092C100E091C60258
:100D1000F091C70282E08083E091C202F091C302A9
:100D20001082E091C402F091C50280E180831092AC
:100D3000CE02E091CA02F091CB0286E08083E0917E
:100D4000C802F091C902808180618083E091C8026D
:100D5000F091C902808188608083E091C802F0919F
:100D6000C902808180688083E091C802F091C90245
:100D700080818F7D808361E08DE00E94D40060E0FF
:100D80008DE00E94870061E088E00E94D40060E06E
:100D900088E00E94870060E08EE00E94D40060E05E
:100DA0008FE00E94D400E0915903F0915A0388EC3F
:100DB00093E0938382838FEC93E097838683E09123
:100DC0005B03F0915C038CEA93E09383828384ED70
:100DD00092E09583848387E093E097838683E09114
:100DE0005D03F0915E0383EB93E09383828388EE4F
:100DF00092E0958384838DE093E097838683E091EE
:100E00005F03F091600386ED93E0938382838DED21
:100E100093E09583848384EE93E097838683E091C7
:100E20006103F09162038BEE93E09383828383E10D
:100E300093E097838683E0916303F091640382EFEC
:100E400093E09383828389E193E097838683109272
:100E500054031092530310925603109255031092AC
:100E6000580310925703C5E6D3E021E733E0A0E032
:100E7000B0E080E090E043E553E0E991F99163A1AF
:100E800074A16355734089F054A343A3009721F4E0
:100E900010A2178ECF0106C0B0A3A78F9296FC9325
:100EA000EE93919712A211A2DF012C173D0729F7AB
:100EB0009093540380935303B0935603A093550328
:100EC000FF24F39493E0292E312C809153039091C9
:100ED00054039093580380935703E0915703F09184
:100EE0005803309709F46CC0C1A0D2A0808180FF64
:100EF00062C085859685A785B089892B8A2B8B2B27
:100F000021F4CF010E945B0256C00E942701E091AC
:100F10005703F091580381809280A380B4800185AB
:100F20001285238534854580568067807084DC0176
:100F3000CB01801B910BA20BB30B84159505A60565
:100F4000B705C8F185859685A785B0891816190655
:100F50001A061B065CF485859685A785B0890197DE
:100F6000A109B10985879687A787B08B858996895E
:100F7000A789B08D0196A11DB11D858B968BA78B7E
:100F8000B08F458156816781708581859285A38563
:100F9000B485840F951FA61FB71F81879287A387EB
:100FA000B48785829682A782B086018CF28DE02D6F
:100FB000309709F00995D0925803C09257038DCF0E
:100FC0008091A50281110CC00E9427016093A102AB
:100FD0007093A2028093A3029093A402F092A502C0
:100FE0008EE00E9410015C018FE00E9410016C01F4
:100FF000B501BB0C880B990B0E94680A2AE038E205
:1010000040EA5BE30E94F50A0E94370A80E090E024
:101010000E94660A4B015C012DE33AE04FE250E486
:101020000E94F00A18167CF420E030E040E650E41C
:10103000C501B4010E94320A87FF05C01092050164
:1010400010920401A7C022E538EB4EEF5FE3C50123
:10105000B4010E94F00A18166CF42DE33AE04FE256
:1010600050E4C501B4010E94320A87FF03C081E049
:1010700090E00CC022E538EB4EEF5FE3C501B40110
:101080000E94320A87FF07C082E090E0909305013A
:10109000809304017FC0B601DD0C880B990B0E9480
:1010A000680A2AE038E240EA5BE30E94F50A0E94FF
:1010B000370A80E090E00E94660A4B015C0120E064
:1010C00030E048E250E40E94F00A18167CF420E078
:1010D00030E040E650E4C501B4010E94320A87FFC7
:1010E00005C0309205012092040154C024E13EEA7B
:1010F00047EE5FE3C501B4010E94F00A18166CF4D4
:1011000020E030E048E250E4C501B4010E94320A18
:1011100087FF03C084E090E0B9CF24E13EEA47EEC8
:101120005FE3C501B4010E94320A87FF03C085E076
:1011300090E0ACCF8091A00281110CC0F092A0028F
:101140000E9427016093A1027093A2028093A302E0
:101150009093A40210929F0286E090E09093050184
:10116000809304018091690390916A030E945B025D
:1011700080916503909166030E945B0280916D03EC
:1011800090916E030E945B0280916F0390917003B7
:101190000E945B0220919E02C0900401D090050144
:1011A00080910001909101012223A9F1A0900201F8
:1011B000B0900301CA14DB0479F416E0C116D1041F
:1011C00059F08630910541F410929E02F0929D02F2
:1011D0008601C1E0D0E054C0C816D90609F03DC16F
:1011E00026E0C216D10409F038C10E9427014090C0
:1011F000A1025090A2026090A3027090A402DC01B0
:10120000CB0184199509A609B70987399105A1056C
:10121000B105F8F422C116E0C116D10409F499C051
:10122000069709F096C00E9427018090A102909035
:10123000A202A090A302B090A402DC01CB01881905
:101240009909AA09BB094597A105B10508F0DDC0B8
:1012500080C010929E0280919D02811175C0809184
:101260009C02811171C08501C0E0D0E00E9427017D
:101270006093A1027093A2028093A3029093A402B0
:1012800080910401909105019093010180930001E8
:101290000630110509F455C0C330D10509F451C019
:1012A000C130D10531F0C230D10531F080E392E098
:1012B00005C08DE392E002C08AE492E00E948C03B4
:1012C00085E592E00E948C0302301105B9F048F4E4
:1012D0000115110581F001301105D1F480E692E08D
:1012E00015C00430110581F060F00530110581F45E
:1012F00088E892E00BC08BE592E008C08AE692E0B5
:1013000005C086E792E002C08DE792E00E949E034E
:10131000F801EE0FFF1FE75AFC4F0190F081E02D1E
:10132000C130D10531F0229741F00280F381E02DE8
:1013300007C00480F581E02D03C00680F781E02D11
:1013400009950E945102C1CDC3E0D0E006E010E053
:101350008DCF8091000190910101C816D90611F539
:101360002091020130910301C216D306D9F426E080
:10137000C216D104E1F00E9427018090980290905B
:101380009902A0909A02B0909B02DC01CB018819CF
:101390009909AA09BB0989359240A105B10508F050
:1013A00049C05BC026E0C216D10409F056C02091A6
:1013B0000201309103018217930709F04EC006978E
:1013C00009F44BC00E9427018090980290909902E6
:1013D000A0909A02B0909B02DC01CB018819990978
:1013E000AA09BB094597A105B105B8F10E942701DB
:1013F0006093A1027093A2028093A3029093A4022F
:1014000010929F02F0929E0228C00E9427016093D2
:1014100098027093990280939A0290939B02D092C3
:101420000301C09202011092A00210929D0210923C
:101430009C0213C080919F0281110AC0F0929F020A
:10144000F0929C028601C2E0D0E010929E0218CF7A
:10145000C3E0D0E006E010E0F8CFC3E0D0E006E063
:1014600010E00ECF0E94A30A08F481E008950E94C4
:10147000CF0A88F09F5798F0B92F9927B751B0F04D
:10148000E1F0660F771F881F991F1AF0BA95C9F708
:1014900014C0B13091F00E94E90AB1E008950C94B3
:1014A000E90A672F782F8827B85F39F0B93FCCF366
:1014B000869577956795B395D9F73EF49095809585
:1014C000709561957F4F8F4F9F4F0895E89409C0A5
:1014D00097FB3EF490958095709561957F4F8F4F67
:1014E0009F4F9923A9F0F92F96E9BB279395F6957D
:1014F000879577956795B795F111F8CFFAF4BB0FFB
:1015000011F460FF1BC06F5F7F4F8F4F9F4F16C05E
:10151000882311F096E911C0772321F09EE8872FE8
:10152000762F05C0662371F096E8862F70E060E0A4
:101530002AF09A95660F771F881FDAF7880F96951D
:10154000879597F90895990F0008550FAA0BE0E8C1
:10155000FEEF16161706E807F907C0F01216130675
:10156000E407F50798F0621B730B840B950B39F4B5
:101570000A2661F0232B242B252B21F408950A261B
:1015800009F4A140A6958FEF811D811D089557FD97
:101590009058440F551F59F05F3F71F04795880FE1
:1015A00097FB991F61F09F3F79F087950895121678
:1015B00013061406551FF2CF4695F1DF08C0161624
:1015C00017061806991FF1CF8695710561050894D5
:1015D0000895E894BB2766277727CB0197F90895EC
:1015E0000E94A30A08F48FEF08950E94080B0C9440
:1015F000790B0E946B0B38F00E94720B20F0952340
:1016000011F00C94620B0C94680B11240C94EA0AF0
:101610000E94C70A70F3959FC1F3950F50E0551FC4
:10162000629FF001729FBB27F00DB11D639FAA2737
:10163000F00DB11DAA1F649F6627B00DA11D661F86
:10164000829F2227B00DA11D621F739FB00DA11DA7
:10165000621F839FA00D611D221F749F3327A00D61
:10166000611D231F849F600D211D822F762F6A2FFD
:1016700011249F5750409AF0F1F088234AF0EE0F62
:10168000FF1FBB1F661F771F881F91505040A9F78F
:101690009E3F510580F00C94620B0C94EA0A5F3F68
:1016A000E4F3983ED4F3869577956795B795F795CB
:1016B000E7959F5FC1F7FE2B880F911D9695879543
:1016C00097F9089597F99F6780E870E060E00895C2
:1016D0009FEF80EC089500240A941616170618064A
:1016E0000906089500240A94121613061406050626
:1016F0000895092E0394000C11F4882352F0BB0FB7
:1017000040F4BF2B11F460FF04C06F5F7F4F8F4F19
:101710009F4F0895EE0FFF1F0590F491E02D09945F
:101720000F931F93CF93DF938230910510F482E0E3
:1017300090E0E0917303F091740320E030E0A0E0CA
:10174000B0E0309719F1408151810281138148172F
:101750005907C8F08417950769F4109731F012966D
:101760000C93129713961C9327C000937303109346
:10177000740322C02115310519F04217530718F4DC
:101780009A01BD01EF01DF01F801DBCF2115310521
:10179000F9F0281B390B2430310580F48A819B81B4
:1017A0006115710521F0FB019383828304C090933E
:1017B000740380937303FE01329644C0FE01E20F6E
:1017C000F31F8193919322503109398328833AC0C2
:1017D0002091710330917203232B41F42091080171
:1017E0003091090130937203209371032091060117
:1017F000309107012115310541F42DB73EB74091D5
:101800000A0150910B01241B350BE0917103F091FB
:101810007203E217F307A0F42E1B3F0B28173907BA
:1018200078F0AC014E5F5F4F2417350748F04E0F3C
:101830005F1F50937203409371038193919302C091
:10184000E0E0F0E0CF01DF91CF911F910F9108957B
:10185000CF93DF93009709F481C0FC013297138284
:101860001282A0917303B0917403109781F42081C8
:101870003181820F931F20917103309172032817D9
:10188000390751F5F0937203E093710367C0ED01DE
:1018900020E030E0CE17DF0740F44A815B819E01F3
:1018A00041155105F1F0EA01F5CFD383C2834081A0
:1018B0005181840F951FC817D90759F488819981E0
:1018C000840F951F0296918380838A819B819383E5
:1018D00082832115310529F4F0937403E093730397
:1018E0003DC0E901FB83EA8349915991C40FD51F9B
:1018F000EC17FD0761F480819181840F951F02969A
:10190000E90199838883828193819B838A83E0E0C4
:10191000F0E012968D919C911397009719F0FD01BC
:10192000DC01F7CF8D919C9111979D012E5F3F4F68
:10193000820F931F2091710330917203281739078A
:1019400069F4309729F4109274031092730302C063
:1019500013821282B0937203A0937103DF91CF912F
:10196000089581E090E0F8940C94B60CF894FFCFC1
:10197000060006000600000075038000000000005D
:10198000E2014B0179012F02AA0188019C010D0A95
:101990000053656E64696E6720766F6C756D6520A7
:1019A000757020636F6D6D616E640053656E646960
:1019B0006E6720766F6C756D6520646F776E20633F
:1019C0006F6D6D616E64005363726F6C6C696E67EE
:1019D00020666F7277617264005363726F6C6C691A
:1019E0006E67206261636B776172640053656E6439
:1019F000696E67206D75746520636F6D6D616E64CF
:101A00000053656E64696E6720766F696365206355
:101A10006F6E74726F6C20636F6D6D616E640053D6
:101A2000656E64696E6720736F7572636520636F9E
:101A30006D6D616E640053656E64696E67206571DB
:101A400075616C697A657220636F6D6D616E64009B
:101A500053656E64696E6720706F77657220636F7F
:101A60006D6D616E640053656E64696E67206E65AE
:101A7000787420747261636B20636F6D6D616E6446
:101A80000053656E64696E672070726576696F7564
:101A90007320747261636B20636F6D6D616E64009F
:101AA00053696E676C6520636C69636B00446F7586
:101AB000626C6520636C69636B004C6F6E672063BA
:101AC0006C69636B0020666F7220006D7574650031
:101AD000766F6C756D6520757000766F6C756D65D1
:101AE00020646F776E00736F75726365006E657842
:101AF0007420747261636B0070726576696F7573C0
:081B000020747261636B0000A8
:00000001FF
