:100000000C945D000C9485000C9485000C94850084
:100010000C9485000C9485000C9485000C9485004C
:100020000C9485000C9485000C9485000C9485003C
:100030000C9485000C9485000C9485000C9485002C
:100040000C94CD030C9485000C943D040C9417047F
:100050000C9485000C9485000C9485000C9485000C
:100060000C9485000C9485000000000024002700FB
:100070002A0000000000250028002B0004040404CE
:100080000404040402020202020203030303030342
:10009000010204081020408001020408102001021F
:1000A00004081020000000080002010000030407FB
:1000B00000000000000000008D0411241FBECFEFDF
:1000C000D8E0DEBFCDBF12E0A0E0B1E0EAECF7E19E
:1000D00002C005900D92A237B107D9F723E0A2E73D
:1000E000B2E001C01D92A334B207E1F710E0CDE504
:1000F000D0E004C02197FE010E94B70ACC35D10799
:10010000C9F70E94C3050C94E30B0C94000090E027
:10011000FC01EC55FF4F2491FC01E057FF4F349157
:10012000FC01E458FF4FE491EE2309F43CC0222384
:1001300039F1233091F038F42130A9F0223001F563
:1001400084B58F7D12C0273091F02830A1F0243083
:10015000B9F4809180008F7D03C0809180008F77FB
:10016000809380000DC084B58F7784BD09C08091D5
:10017000B0008F7703C08091B0008F7D8093B00076
:10018000F0E0EE0FFF1FEE58FF4FA591B4919FB71F
:10019000F894611104C08C913095382302C0EC9121
:1001A0003E2B3C939FBF0895CF93DF9390E0FC01DB
:1001B000E057FF4F2491FC01E458FF4F84918823BE
:1001C00061F190E0880F991FFC01E859FF4FC5913C
:1001D000D491FC01EE58FF4FA591B491611109C073
:1001E0009FB7F8948881209582238883EC912E23F1
:1001F0000BC0623061F49FB7F8948881322F30953C
:1002000083238883EC912E2B2C939FBF06C08FB73E
:10021000F894E8812E2B28838FBFDF91CF9108952A
:100220008E3008F08E508770806480937C008091BF
:100230007A00806480937A0080917A0086FDFCCFFA
:10024000809178002091790090E0922B08952FB74B
:10025000F894609184027091850280918602909159
:1002600087022FBF0895CF93DF93EC0188EC90E0D5
:10027000A0E0B0E089839A83AB83BC8389819A81B3
:10028000AB81BC818D839E83AF83B8870E94270199
:1002900069877A878B879C87DF91CF910895CF926A
:1002A000DF92EF92FF920F931F93CF93DF936C0136
:1002B0007A018B01C0E0D0E0CE15DF0581F0D801D6
:1002C0006D918D01D601ED91FC910190F081E02DB1
:1002D000C6010995892B11F02196EECF7E01C70149
:1002E000DF91CF911F910F91FF90EF90DF90CF9012
:1002F0000895089580E090E00895FC01538D448DA9
:10030000252F30E0842F90E0821B930B541710F0C0
:10031000CF96089501970895FC01918D828D9817CD
:1003200061F0828DDF01A80FB11D5D968C91928DD9
:100330009F5F9F73928F90E008958FEF9FEF0895D6
:10034000FC01918D828D981731F0828DE80FF11D9F
:10035000858D90E008958FEF9FEF0895FC01918DBA
:10036000228D892F90E0805C9F4F821B91098F73B3
:100370009927089588E892E00E94AE0121E0892B38
:1003800009F420E0822F0895FC01848DDF01A80F7D
:10039000B11DA35ABF4F2C91848D90E001968F73AD
:1003A0009927848FA689B7892C93A089B1898C91CC
:1003B000837080648C93938D848D981306C002881B
:1003C000F389E02D80818F7D80830895EF92FF92E5
:1003D0000F931F93CF93DF93EC0181E0888F9B8D68
:1003E0008C8D981305C0E889F989808185FD26C028
:1003F000F62E0B8D10E00F5F1F4F0F731127E02EAD
:100400008C8DE8120CC00FB607FCFACFE889F98989
:10041000808185FFF5CFCE010E94C401F1CF8B8D85
:10042000FE01E80FF11DE35AFF4FF0829FB7F894E9
:100430000B8FEA89FB89808180620AC09FB7F8949C
:10044000EE89FF896083E889F989808183708064FF
:1004500080839FBF81E090E0DF91CF911F910F914A
:10046000FF90EF900895CF93DF93EC01888D882360
:10047000C9F0EA89FB89808185FD05C0A889B98911
:100480008C9186FD0FC00FB607FCF5CF808185FFEC
:10049000F2CFA889B9898C9185FFEDCFCE010E945A
:1004A000C401E7CFDF91CF91089580E090E0892BE0
:1004B00029F00E94BA0181110C9400000895EF9276
:1004C000FF921F93CF93DF93DC018C919C919E7FD1
:1004D0009C939C919D7F9C93182F117080FF16C058
:1004E0005D96ED91FC915E97309781F0ED01ABA1A7
:1004F000BCA11496ED90FC9015971596DC93CE93C5
:1005000014970995EBA1FCA1F582E482812FDF917C
:10051000CF911F91FF90EF900895CF92DF92EF92CD
:10052000FF921F93CF93DF93EC018881182F1170F6
:1005300080FD3FC0ABA1BCA11097D9F11D8A1E8AD6
:100540001F8A188EEB8DFC8D309779F1888181FDA3
:100550002CC01496ED90FC9015971596DC93CE93D5
:1005600014978881826088830995988180FB90F92F
:10057000988388818D7F8883EBA1FCA1F582E4823A
:100580000E942701C980DA80EB80FC80CD82DE8268
:10059000EF82F886DC01CB018C199D09AE09BF09F9
:1005A00089879A87AB87BC8704C0888181608883EC
:1005B000E7CF812FDF91CF911F91FF90EF90DF90D8
:1005C000CF9008958091390390913A030C948D0255
:1005D00080913703909138030C948D0280913D03F4
:1005E00090913E030C948D0280913B0390913C03CB
:1005F0000C948D0261E08DE00E94870087E398E013
:100600000197F1F760E08DE00E9487008FEA98E1A2
:100610000197F1F70895EF92FF920F931F93CF93F5
:10062000DF937C01CFE0D1E007E318E08D2F90E06D
:100630008E219F21892B19F00E94FA020EC061E0E1
:1006400088E00E948700C8010197F1F760E088E028
:100650000E948700C8010197F1F7DD0FC15031F703
:10066000DF91CF911F910F91FF90EF900895CF935D
:10067000DF93EC0160E088E00E94870087E398E068
:100680000197F1F761E088E00E9487008BEB93E827
:100690000197F1F760E088E00E9487008BED91E41C
:1006A0000197F1F70E94FA02809172029091730211
:1006B0000E940B03CE010E940B030E94FA02DF91FD
:1006C000CF910C94FA02009769F0FC010190002090
:1006D000E9F73197AF01481B590BBC0188E892E05C
:1006E0000C944F0180E090E00895CF93DF930E9437
:1006F0006303EC018EE191E00E9463038C0F9D1F68
:10070000DF91CF91089581E291E00E94750384E02A
:1007100090E00C9437038BE391E00E94750385E031
:1007200090E00C94370387E591E00E9475038EE01A
:1007300090E00C9437038CE691E00E9475038AE107
:1007400090E00C9437038AE891E00E9475038AE0F8
:1007500090E00C94370380EA91E00E94750388E0F2
:1007600090E00C94370387EB91E00E9475038DE0D5
:1007700090E00C94370381ED91E00E94750382E1D3
:1007800090E00C9437038CEE91E00E94750383E1B6
:1007900090E00C9437030E94DE0B1F920F920FB66D
:1007A0000F9211242F933F938F939F93AF93BF93F7
:1007B0008091840290918502A0918602B091870277
:1007C0003091830223E0230F2D3720F40196A11DE1
:1007D000B11D05C026E8230F0296A11DB11D20936F
:1007E00083028093840290938502A0938602B09343
:1007F000870280917F0290918002A0918102B09146
:1008000082020196A11DB11D80937F029093800208
:10081000A0938102B0938202BF91AF919F918F917B
:100820003F912F910F900FBE0F901F9018951F9220
:100830000F920FB60F9211242F933F934F935F9314
:100840006F937F938F939F93AF93BF93EF93FF9398
:1008500088E892E00E94C401FF91EF91BF91AF91AF
:100860009F918F917F916F915F914F913F912F91C8
:100870000F900FBE0F901F9018951F920F920FB6FA
:100880000F9211242F938F939F93EF93FF93E091F7
:100890009802F09199028081E0919E02F0919F026E
:1008A00082FD12C090818091A1028F5F8F73209191
:1008B000A202821751F0E091A102F0E0E857FD4F4B
:1008C000958F8093A10201C08081FF91EF919F914C
:1008D0008F912F910F900FBE0F901F901895FC01D4
:1008E00080818E7F808380818D7F808311861286B8
:1008F0001386148615821682178210861182128240
:100900001382148210A2178E12A211A214A213A293
:10091000158A168A178A108E08956F927F928F9289
:100920009F92AF92BF92CF92DF92EF92FF920F937E
:100930001F93CF93DF93E8E8F2E01382128288EEF0
:1009400093E0A0E0B0E084839583A683B78380E141
:1009500091E09183808385EC90E09587848784EC97
:1009600090E09787868780EC90E0918B808B81EC7C
:1009700090E0938B828B82EC90E0958B848B86EC5D
:1009800090E0978B868B118E128E138E148E85E2DB
:1009900090E00E94BD0AEC010E946F0483E8E82EFB
:1009A00083E0F82EFA8EE98E1C8E1B8E1E8E1D8E15
:1009B000CE010E94330188248A94982C54018D869C
:1009C0009E86AF86B88A898A9A8AAB8ABC8A07E3F0
:1009D00013E0F801D183C08385E290E00E94BD0A54
:1009E000EC010E946F04FA8EE98E1C8E1B8E1E8E07
:1009F0001D8ECE010E94330125E0C22ED12CE12CA8
:100A0000F12CCD86DE86EF86F88AC98ADA8AEB8AEF
:100A1000FC8AF801D383C28385E290E00E94BD0A7C
:100A2000EC010E946F043BE8632E33E0732E7A8E54
:100A3000698E1C8E1B8E1E8E1D8ECE010E94330170
:100A40008D869E86AF86B88A898A9A8AAB8ABC8A46
:100A5000F801D583C48385E290E00E94BD0AEC01D1
:100A60000E946F047A8E698E1C8E1B8E1E8E1D8EC8
:100A7000CE010E943301CD86DE86EF86F88AC98AD0
:100A8000DA8AEB8AFC8AF801D783C68388E090E093
:100A90000E94BD0AFC011382128215821482178201
:100AA000168211821082CBE2D3E09983888388E09A
:100AB00090E00E94BD0AFC0113821282158214820A
:100AC0001782168281E090E091838083FB83EA8322
:100AD00088E090E00E94BD0AFC0113821282158218
:100AE00014821782168282E090E091838083FD83D6
:100AF000EC8388E090E00E94BD0AFC011382128220
:100B0000158214821782168283E090E0918380839D
:100B1000FF83EE8388E090E00E94BD0AFC0113820F
:100B20001282158214821782168284E090E09183EB
:100B30008083F987E88788E090E00E94BD0AFC0185
:100B400013821282158214821782168285E090E049
:100B500091838083FB87EA87E5E2F3E011821082CC
:100B60001382128215821482DF91CF911F910F910F
:100B7000FF90EF90DF90CF90BF90AF909F908F90BD
:100B80007F906F900895789484B5826084BD84B519
:100B9000816084BD85B5826085BD85B5816085BD78
:100BA00080916E00816080936E0010928100809130
:100BB00081008260809381008091810081608093B8
:100BC0008100809180008160809380008091B100DD
:100BD00084608093B1008091B00081608093B00008
:100BE00080917A00846080937A0080917A0082609C
:100BF00080937A0080917A00816080937A0080915E
:100C00007A00806880937A001092C100E091980287
:100C1000F091990282E08083E0919402F091950234
:100C20001082E0919602F091970280E18083109209
:100C3000A002E0919C02F0919D0286E08083E09109
:100C40009A02F0919B02808180618083E0919A02F8
:100C5000F0919B02808188608083E0919A02F091FC
:100C60009B02808180688083E0919A02F0919B02D0
:100C700080818F7D808361E08DE00E94D40060E000
:100C80008DE00E94870061E088E00E94D40060E06F
:100C900088E00E94870060E08EE00E94D40060E05F
:100CA0008FE00E94D40087E490E0909373028093D9
:100CB0007202E0912B03F0912C0383E993E093837C
:100CC00082838BE993E09583848383EA93E097831F
:100CD0008683E0912D03F0912E0383E893E09383C4
:100CE000828382EE92E09583848388EE92E09783FC
:100CF0008683E0912F03F09130038BE893E0938398
:100D000082838EEE92E09583848384EF92E09783D2
:100D10008683E0913103F09132038BEA93E0938371
:100D2000828383EB93E095838483E0913303F09196
:100D300034038BEB93E093838283E0913503F0914E
:100D4000360383EC93E09383828310922603109200
:100D500025031092280310922703C1E043E0242EBC
:100D6000312C02E010E0EE24E394F12C8091250375
:100D70009091260390932A0380932903E0912903FD
:100D8000F0912A03309709F46CC0C1A0D2A08081F1
:100D900080FF62C085859685A785B089892B8A2BBF
:100DA0008B2B21F4CF010E945F0256C00E942701C5
:100DB000E0912903F0912A0381809280A380B4807E
:100DC00021853285438554854580568067807084AF
:100DD000DC01CB01821B930BA40BB50B841595058D
:100DE000A605B705C8F185859685A785B08918162B
:100DF00019061A061B065CF485859685A785B089B9
:100E00000197A109B10985879687A787B08B858946
:100E10009689A789B08D0196A11DB11D858B968BF2
:100E2000A78BB08F458156816781708581859285BA
:100E3000A385B485840F951FA61FB71F818792874E
:100E4000A387B48785829682A782B086018CF28DB3
:100E5000E02D309709F00995D0922A03C09229031A
:100E60008DCF8EE00E9410015C018FE00E94100186
:100E70006C01B501BB0C880B990B0E9495092AE007
:100E800038E240EA5BE30E94220A0E94640980E0A3
:100E900090E00E9493094B015C012DE33AE04FE2A0
:100EA00050E40E941D0A87FD0FC021E73DE342E8A0
:100EB00050E4C501B4010E945F0987FF05C010928C
:100EC000050110920401B3C022E538EB4EEF5FE359
:100ED000C501B4010E941D0A87FD0FC02DE33AE051
:100EE0004FE250E4C501B4010E945F0987FF05C0CD
:100EF000F0920501E09204019AC024E13EEA47EA3B
:100F00005FE3C501B4010E941D0A87FD0FC022E501
:100F100038EB4EEF5FE3C501B4010E945F0987FF24
:100F200005C0109305010093040181C0B601DD0CDA
:100F3000880B990B0E9495092AE038E240EA5BE3AE
:100F40000E94220A0E94640980E090E00E949309B6
:100F50004B015C0120E030E048E250E40E941D0AB1
:100F600087FD0FC028EB3EE141E850E4C501B40124
:100F70000E945F0987FF05C030920501209204019D
:100F800056C024E13EEA47EE5FE3C501B4010E948A
:100F90001D0A87FD0DC020E030E048E250E4C501A5
:100FA000B4010E945F0987FF03C084E090E016C08F
:100FB00023EC35EF48E85FE3C501B4010E941D0A48
:100FC00087FD11C024E13EEA47EE5FE3C501B401AD
:100FD0000E945F0987FF07C085E090E090930501BC
:100FE0008093040124C080917E0281110CC0C093C3
:100FF0007E020E94270160937A0270937B028093A5
:101000007C0290937D021092790286E090E09093AA
:1010100005018093040180913B0390913C030E9461
:101020005F0280913703909138030E945F02209104
:101030007802C0900401D090050180910001909148
:101040000101222309F43FC0A0900201B0900301E6
:10105000CA14DB0449F48630910531F41092780209
:10106000AA24A394B12C89C0C816D90609F0FAC0E5
:1010700096E0C916D10409F0F5C00E9427014090FE
:101080007A0250907B0260907C0270907D02DC01BD
:10109000CB0184199509A609B70985369105A105E3
:1010A000B10508F4DFC0109278020E942701609316
:1010B0007A0270937B0280937C0290937D0265019B
:1010C000A12CB12C5AC026E0C216D10439F10697E2
:1010D00029F50E94270180907A0290907B02A090CF
:1010E0007C02B0907D02DC01CB0188199909AA0924
:1010F000BB094597A105B10588F00E9427016093BF
:101100007402709375028093760290937702D09266
:101110000301C092020110927E02A4C080910001DE
:1011200090910101C816D90609F091C08091020181
:1011300090910301C816D90609F094C00E942701B6
:101140008090740290907502A0907602B090770221
:10115000DC01CB0188199909AA09BB09893E934092
:10116000A105B10508F484C08091790281117AC08B
:10117000C093790222E0A22EB12C809104019091BB
:101180000501909301018093000186E0C816D10407
:1011900009F45AC091E0A916B10439F022E0A21670
:1011A000B10431F08BE092E005C088E192E002C02A
:1011B00085E292E00E94630380E392E00E94630371
:1011C00082E0C816D104D1F050F4C114D10499F0D2
:1011D00021E0C216D104E1F48BE392E017C084E071
:1011E000C816D10489F068F025E0C216D10481F454
:1011F00083E692E00BC086E392E008C085E492E0CB
:1012000005C081E592E002C088E592E00E94750386
:10121000F601EE0FFF1FE55DFC4F0190F081E02D20
:1012200081E0A816B10441F092E0A916B10441F0A2
:101230000280F381E02D07C00480F581E02D03C01A
:101240000680F781E02D09950E9455028FCD26E09A
:10125000C216D10439F420910201309103018217A2
:10126000930751F0A12CB12C86E0C82ED12C85CF4C
:1012700086E0C816D104B1F70E942701809074025D
:1012800090907502A0907602B0907702DC01CB01BD
:1012900088199909AA09BB094597A105B10510F359
:1012A0000E94270160937A0270937B0280937C02F4
:1012B00090937D0210927902C0937802D3CF0E945E
:1012C000D00908F481E008950E94FC0988F09F5736
:1012D00098F0B92F9927B751B0F0E1F0660F771F5A
:1012E000881F991F1AF0BA95C9F714C0B13091F050
:1012F0000E94160AB1E008950C94160A672F782F01
:101300008827B85F39F0B93FCCF386957795679514
:10131000B395D9F73EF490958095709561957F4F80
:101320008F4F9F4F0895E89409C097FB3EF4909526
:101330008095709561957F4F8F4F9F4F9923A9F0AE
:10134000F92F96E9BB279395F6958795779567953D
:10135000B795F111F8CFFAF4BB0F11F460FF1BC081
:101360006F5F7F4F8F4F9F4F16C0882311F096E914
:1013700011C0772321F09EE8872F762F05C06623C2
:1013800071F096E8862F70E060E02AF09A95660F7B
:10139000771F881FDAF7880F9695879597F9089534
:1013A000990F0008550FAA0BE0E8FEEF1616170676
:1013B000E807F907C0F012161306E407F50798F0DE
:1013C000621B730B840B950B39F40A2661F0232BF7
:1013D000242B252B21F408950A2609F4A140A69573
:1013E0008FEF811D811D089557FD9058440F551FA3
:1013F00059F05F3F71F04795880F97FB991F61F097
:101400009F3F79F087950895121613061406551F0D
:10141000F2CF4695F1DF08C0161617061806991F79
:10142000F1CF86957105610508940895E894BB276E
:1014300066277727CB0197F908950E94D00908F411
:101440008FEF08950E94350A0C94A60A0E94980A0C
:1014500038F00E949F0A20F0952311F00C948F0A17
:101460000C94950A11240C94170A0E94F40970F345
:10147000959FC1F3950F50E0551F629FF001729F39
:10148000BB27F00DB11D639FAA27F00DB11DAA1F48
:10149000649F6627B00DA11D661F829F2227B00D95
:1014A000A11D621F739FB00DA11D621F839FA00D20
:1014B000611D221F749F3327A00D611D231F849F70
:1014C000600D211D822F762F6A2F11249F575040C7
:1014D0009AF0F1F088234AF0EE0FFF1FBB1F661F42
:1014E000771F881F91505040A9F79E3F510580F00B
:1014F0000C948F0A0C94170A5F3FE4F3983ED4F3E0
:10150000869577956795B795F795E7959F5FC1F7AE
:10151000FE2B880F911D9695879597F9089597F959
:101520009F6780E870E060E008959FEF80EC089589
:1015300000240A94161617061806090608950024B2
:101540000A9412161306140605060895092E03942C
:10155000000C11F4882352F0BB0F40F4BF2B11F4A0
:1015600060FF04C06F5F7F4F8F4F9F4F0895EE0F56
:10157000FF1F0590F491E02D09940F931F93CF93D3
:10158000DF938230910510F482E090E0E091410316
:10159000F091420320E030E0A0E0B0E0309719F194
:1015A000408151810281138148175907C8F084177F
:1015B000950769F4109731F012960C9312971396D1
:1015C0001C9327C0009341031093420322C02115AE
:1015D000310519F04217530718F49A01BD01EF01C4
:1015E000DF01F801DBCF21153105F9F0281B390B9C
:1015F0002430310580F48A819B816115710521F0C9
:10160000FB019383828304C0909342038093410340
:10161000FE01329644C0FE01E20FF31F81939193C5
:1016200022503109398328833AC020913F033091F9
:101630004003232B41F4209108013091090130939C
:10164000400320933F0320910601309107012115AB
:10165000310541F42DB73EB740910A0150910B017D
:10166000241B350BE0913F03F0914003E217F30791
:10167000A0F42E1B3F0B2817390778F0AC014E5F02
:101680005F4F2417350748F04E0F5F1F50934003FC
:1016900040933F038193919302C0E0E0F0E0CF01DB
:1016A000DF91CF911F910F910895CF93DF93009712
:1016B00009F481C0FC01329713821282A091410388
:1016C000B0914203109781F420813181820F931FE2
:1016D00020913F03309140032817390751F5F093CB
:1016E0004003E0933F0367C0ED0120E030E0CE17F8
:1016F000DF0740F44A815B819E0141155105F1F0FD
:10170000EA01F5CFD383C28340815181840F951FB5
:10171000C817D90759F488819981840F951F0296BB
:10172000918380838A819B819383828321153105F4
:1017300029F4F0934203E09341033DC0E901FB83A8
:10174000EA8349915991C40FD51FEC17FD0761F445
:1017500080819181840F951F0296E9019983888386
:10176000828193819B838A83E0E0F0E012968D91E1
:101770009C911397009719F0FD01DC01F7CF8D9133
:101780009C9111979D012E5F3F4F820F931F2091D7
:101790003F03309140032817390769F4309729F443
:1017A000109242031092410302C013821282B0933E
:1017B0004003A0933F03DF91CF91089581E090E033
:0A17C000F8940C94E30BF894FFCFAB
:1017CA000600060006000000430380000000000037
:1017DA00E6014F017D013302AE018C01A0010D0A21
:1017EA000053656E64696E6720766F6C756D65204F
:1017FA00757020636F6D6D616E640053656E646908
:10180A006E6720766F6C756D6520646F776E2063E6
:10181A006F6D6D616E640053656E64696E67206DED
:10182A0075746520636F6D6D616E640053656E64D7
:10183A00696E6720766F69636520636F6E74726F75
:10184A006C20636F6D6D616E640053656E64696EC2
:10185A006720706F77657220636F6D6D616E6400CB
:10186A0053656E64696E6720736F75726365206372
:10187A006F6D6D616E640053656E64696E67206595
:10188A007175616C697A657220636F6D6D616E64E2
:10189A000053656E64696E67206E65787420747291
:1018AA0061636B20636F6D6D616E640053656E6476
:1018BA00696E672070726576696F757320747261DC
:1018CA00636B20636F6D6D616E640053696E676C44
:1018DA006520636C69636B00446F75626C65206395
:1018EA006C69636B004C6F6E6720636C69636B0095
:1018FA0020666F7220006D75746500766F6C756D69
:10190A006520757000766F6C756D6520646F776EF3
:10191A0000736F75726365006E6578742074726106
:10192A00636B0070726576696F7573207472616398
:02193A006B0040
:00000001FF
